{
  "contractName": "Contract",
  "abi": [
    {
      "inputs": [],
      "stateMutability": "nonpayable",
      "type": "constructor"
    },
    {
      "inputs": [
        {
          "internalType": "address",
          "name": "",
          "type": "address"
        }
      ],
      "name": "ethBL",
      "outputs": [
        {
          "internalType": "uint256",
          "name": "",
          "type": "uint256"
        }
      ],
      "stateMutability": "view",
      "type": "function",
      "constant": true
    },
    {
      "inputs": [],
      "name": "owner",
      "outputs": [
        {
          "internalType": "address",
          "name": "",
          "type": "address"
        }
      ],
      "stateMutability": "view",
      "type": "function",
      "constant": true
    },
    {
      "inputs": [
        {
          "internalType": "address",
          "name": "",
          "type": "address"
        }
      ],
      "name": "tk_in",
      "outputs": [
        {
          "internalType": "bool",
          "name": "",
          "type": "bool"
        }
      ],
      "stateMutability": "view",
      "type": "function",
      "constant": true
    },
    {
      "inputs": [
        {
          "internalType": "address",
          "name": "",
          "type": "address"
        },
        {
          "internalType": "address",
          "name": "",
          "type": "address"
        }
      ],
      "name": "tokenBL",
      "outputs": [
        {
          "internalType": "uint256",
          "name": "",
          "type": "uint256"
        }
      ],
      "stateMutability": "view",
      "type": "function",
      "constant": true
    },
    {
      "inputs": [],
      "name": "deposit",
      "outputs": [
        {
          "internalType": "bool",
          "name": "",
          "type": "bool"
        }
      ],
      "stateMutability": "payable",
      "type": "function",
      "payable": true
    },
    {
      "inputs": [],
      "name": "getOwner",
      "outputs": [
        {
          "internalType": "string",
          "name": "",
          "type": "string"
        }
      ],
      "stateMutability": "pure",
      "type": "function",
      "constant": true
    },
    {
      "inputs": [
        {
          "internalType": "address",
          "name": "_token",
          "type": "address"
        },
        {
          "internalType": "bool",
          "name": "_in",
          "type": "bool"
        }
      ],
      "name": "up_token",
      "outputs": [
        {
          "internalType": "bool",
          "name": "",
          "type": "bool"
        }
      ],
      "stateMutability": "nonpayable",
      "type": "function"
    },
    {
      "inputs": [
        {
          "internalType": "address",
          "name": "_token",
          "type": "address"
        },
        {
          "internalType": "uint256",
          "name": "_amount",
          "type": "uint256"
        }
      ],
      "name": "depositToken",
      "outputs": [],
      "stateMutability": "nonpayable",
      "type": "function"
    },
    {
      "inputs": [
        {
          "internalType": "uint256",
          "name": "_amount",
          "type": "uint256"
        },
        {
          "internalType": "address",
          "name": "_to",
          "type": "address"
        }
      ],
      "name": "withdraw",
      "outputs": [],
      "stateMutability": "nonpayable",
      "type": "function"
    },
    {
      "inputs": [
        {
          "internalType": "address",
          "name": "_token",
          "type": "address"
        },
        {
          "internalType": "uint256",
          "name": "_amount",
          "type": "uint256"
        },
        {
          "internalType": "address",
          "name": "_to",
          "type": "address"
        }
      ],
      "name": "withdrawToken",
      "outputs": [],
      "stateMutability": "nonpayable",
      "type": "function"
    }
  ],
  "bytecode": "0x608060405234801561001057600080fd5b5033600360006101000a81548173ffffffffffffffffffffffffffffffffffffffff021916908373ffffffffffffffffffffffffffffffffffffffff160217905550611376806100616000396000f3fe6080604052600436106100905760003560e01c8063400f557811610059578063400f55781461018a57806384963f2a146101c7578063893d20e8146102045780638da5cb5b1461022f578063d0e30db01461025a57610090565b8062f714ce146100955780630ac4da05146100be5780631f9f03fa146100fb578063338b5dea146101385780633ccdbb2814610161575b600080fd5b3480156100a157600080fd5b506100bc60048036038101906100b79190610d4b565b610278565b005b3480156100ca57600080fd5b506100e560048036038101906100e09190610bcd565b6103ff565b6040516100f29190611174565b60405180910390f35b34801561010757600080fd5b50610122600480360381019061011d9190610c32565b610417565b60405161012f9190611057565b60405180910390f35b34801561014457600080fd5b5061015f600480360381019061015a9190610c6e565b6104d4565b005b34801561016d57600080fd5b5061018860048036038101906101839190610caa565b610835565b005b34801561019657600080fd5b506101b160048036038101906101ac9190610bf6565b610a5e565b6040516101be9190611174565b60405180910390f35b3480156101d357600080fd5b506101ee60048036038101906101e99190610bcd565b610a83565b6040516101fb9190611057565b60405180910390f35b34801561021057600080fd5b50610219610aa3565b6040516102269190611072565b60405180910390f35b34801561023b57600080fd5b50610244610ae0565b6040516102519190610fdc565b60405180910390f35b610262610b06565b60405161026f9190611057565b60405180910390f35b816000803373ffffffffffffffffffffffffffffffffffffffff1673ffffffffffffffffffffffffffffffffffffffff1681526020019081526020016000205410156102f9576040517f08c379a00000000000000000000000000000000000000000000000000000000081526004016102f090611154565b60405180910390fd5b816000803373ffffffffffffffffffffffffffffffffffffffff1673ffffffffffffffffffffffffffffffffffffffff1681526020019081526020016000206000828254610347919061120c565b9250508190555060008173ffffffffffffffffffffffffffffffffffffffff168360405161037490610fc7565b60006040518083038185875af1925050503d80600081146103b1576040519150601f19603f3d011682016040523d82523d6000602084013e6103b6565b606091505b50509050806103fa576040517f08c379a00000000000000000000000000000000000000000000000000000000081526004016103f190611134565b60405180910390fd5b505050565b60006020528060005260406000206000915090505481565b6000600360009054906101000a900473ffffffffffffffffffffffffffffffffffffffff1673ffffffffffffffffffffffffffffffffffffffff163373ffffffffffffffffffffffffffffffffffffffff161461047357600080fd5b81600260008573ffffffffffffffffffffffffffffffffffffffff1673ffffffffffffffffffffffffffffffffffffffff16815260200190815260200160002060006101000a81548160ff0219169083151502179055506001905092915050565b600260008373ffffffffffffffffffffffffffffffffffffffff1673ffffffffffffffffffffffffffffffffffffffff16815260200190815260200160002060009054906101000a900460ff16610560576040517f08c379a0000000000000000000000000000000000000000000000000000000008152600401610557906110d4565b60405180910390fd5b60008273ffffffffffffffffffffffffffffffffffffffff166370a08231306040518263ffffffff1660e01b815260040161059b9190610fdc565b60206040518083038186803b1580156105b357600080fd5b505afa1580156105c7573d6000803e3d6000fd5b505050506040513d601f19601f820116820180604052508101906105eb9190610d22565b905060008373ffffffffffffffffffffffffffffffffffffffff166323b872dd3330866040518463ffffffff1660e01b815260040161062c93929190610ff7565b602060405180830381600087803b15801561064657600080fd5b505af115801561065a573d6000803e3d6000fd5b505050506040513d601f19601f8201168201806040525081019061067e9190610cf9565b9050806106c0576040517f08c379a00000000000000000000000000000000000000000000000000000000081526004016106b790611094565b60405180910390fd5b60008473ffffffffffffffffffffffffffffffffffffffff166370a08231306040518263ffffffff1660e01b81526004016106fb9190610fdc565b60206040518083038186803b15801561071357600080fd5b505afa158015610727573d6000803e3d6000fd5b505050506040513d601f19601f8201168201806040525081019061074b9190610d22565b905082811015610790576040517f08c379a0000000000000000000000000000000000000000000000000000000008152600401610787906110b4565b60405180910390fd5b828161079c919061120c565b600160003373ffffffffffffffffffffffffffffffffffffffff1673ffffffffffffffffffffffffffffffffffffffff16815260200190815260200160002060008773ffffffffffffffffffffffffffffffffffffffff1673ffffffffffffffffffffffffffffffffffffffff168152602001908152602001600020600082825461082791906111b6565b925050819055505050505050565b81600160003373ffffffffffffffffffffffffffffffffffffffff1673ffffffffffffffffffffffffffffffffffffffff16815260200190815260200160002060008573ffffffffffffffffffffffffffffffffffffffff1673ffffffffffffffffffffffffffffffffffffffff1681526020019081526020016000205410156108f4576040517f08c379a00000000000000000000000000000000000000000000000000000000081526004016108eb90611114565b60405180910390fd5b81600160003373ffffffffffffffffffffffffffffffffffffffff1673ffffffffffffffffffffffffffffffffffffffff16815260200190815260200160002060008573ffffffffffffffffffffffffffffffffffffffff1673ffffffffffffffffffffffffffffffffffffffff1681526020019081526020016000206000828254610980919061120c565b9250508190555060008373ffffffffffffffffffffffffffffffffffffffff1663a9059cbb83856040518363ffffffff1660e01b81526004016109c492919061102e565b602060405180830381600087803b1580156109de57600080fd5b505af11580156109f2573d6000803e3d6000fd5b505050506040513d601f19601f82011682018060405250810190610a169190610cf9565b905080610a58576040517f08c379a0000000000000000000000000000000000000000000000000000000008152600401610a4f906110f4565b60405180910390fd5b50505050565b6001602052816000526040600020602052806000526040600020600091509150505481565b60026020528060005260406000206000915054906101000a900460ff1681565b60606040518060400160405280600981526020017f474554204f574e45520000000000000000000000000000000000000000000000815250905090565b600360009054906101000a900473ffffffffffffffffffffffffffffffffffffffff1681565b6000346000803373ffffffffffffffffffffffffffffffffffffffff1673ffffffffffffffffffffffffffffffffffffffff1681526020019081526020016000206000828254610b5691906111b6565b925050819055506001905090565b600081359050610b73816112fb565b92915050565b600081359050610b8881611312565b92915050565b600081519050610b9d81611312565b92915050565b600081359050610bb281611329565b92915050565b600081519050610bc781611329565b92915050565b600060208284031215610bdf57600080fd5b6000610bed84828501610b64565b91505092915050565b60008060408385031215610c0957600080fd5b6000610c1785828601610b64565b9250506020610c2885828601610b64565b9150509250929050565b60008060408385031215610c4557600080fd5b6000610c5385828601610b64565b9250506020610c6485828601610b79565b9150509250929050565b60008060408385031215610c8157600080fd5b6000610c8f85828601610b64565b9250506020610ca085828601610ba3565b9150509250929050565b600080600060608486031215610cbf57600080fd5b6000610ccd86828701610b64565b9350506020610cde86828701610ba3565b9250506040610cef86828701610b64565b9150509250925092565b600060208284031215610d0b57600080fd5b6000610d1984828501610b8e565b91505092915050565b600060208284031215610d3457600080fd5b6000610d4284828501610bb8565b91505092915050565b60008060408385031215610d5e57600080fd5b6000610d6c85828601610ba3565b9250506020610d7d85828601610b64565b9150509250929050565b610d9081611240565b82525050565b610d9f81611252565b82525050565b6000610db08261118f565b610dba81856111a5565b9350610dca818560208601611288565b610dd3816112ea565b840191505092915050565b6000610deb6010836111a5565b91507f4465706f736974202d2d204552524f52000000000000000000000000000000006000830152602082019050919050565b6000610e2b601c836111a5565b91507f746f6b656e207472616e73666572206973206e6f7420636f72656374000000006000830152602082019050919050565b6000610e6b6020836111a5565b91507f546f6b656e206973206e6f7420616c6c6f77656420666f72206465706f7369746000830152602082019050919050565b6000610eab60008361119a565b9150600082019050919050565b6000610ec56011836111a5565b91507f5769746864726177202d2d204552524f520000000000000000000000000000006000830152602082019050919050565b6000610f056019836111a5565b91507f4e6f7420656e6f7567687420746f6b656e2062616c616e6365000000000000006000830152602082019050919050565b6000610f45600e836111a5565b91507f5769746864726177204552524f520000000000000000000000000000000000006000830152602082019050919050565b6000610f85601d836111a5565b91507f657468202d206973206e6f7420656e6f75676874202062616c616e63650000006000830152602082019050919050565b610fc18161127e565b82525050565b6000610fd282610e9e565b9150819050919050565b6000602082019050610ff16000830184610d87565b92915050565b600060608201905061100c6000830186610d87565b6110196020830185610d87565b6110266040830184610fb8565b949350505050565b60006040820190506110436000830185610d87565b6110506020830184610fb8565b9392505050565b600060208201905061106c6000830184610d96565b92915050565b6000602082019050818103600083015261108c8184610da5565b905092915050565b600060208201905081810360008301526110ad81610dde565b9050919050565b600060208201905081810360008301526110cd81610e1e565b9050919050565b600060208201905081810360008301526110ed81610e5e565b9050919050565b6000602082019050818103600083015261110d81610eb8565b9050919050565b6000602082019050818103600083015261112d81610ef8565b9050919050565b6000602082019050818103600083015261114d81610f38565b9050919050565b6000602082019050818103600083015261116d81610f78565b9050919050565b60006020820190506111896000830184610fb8565b92915050565b600081519050919050565b600081905092915050565b600082825260208201905092915050565b60006111c18261127e565b91506111cc8361127e565b9250827fffffffffffffffffffffffffffffffffffffffffffffffffffffffffffffffff03821115611201576112006112bb565b5b828201905092915050565b60006112178261127e565b91506112228361127e565b925082821015611235576112346112bb565b5b828203905092915050565b600061124b8261125e565b9050919050565b60008115159050919050565b600073ffffffffffffffffffffffffffffffffffffffff82169050919050565b6000819050919050565b60005b838110156112a657808201518184015260208101905061128b565b838111156112b5576000848401525b50505050565b7f4e487b7100000000000000000000000000000000000000000000000000000000600052601160045260246000fd5b6000601f19601f8301169050919050565b61130481611240565b811461130f57600080fd5b50565b61131b81611252565b811461132657600080fd5b50565b6113328161127e565b811461133d57600080fd5b5056fea26469706673582212204eb6d87627c7ac8d8e13a47d624a8b34aa3567393bf822a3b381f9cde2e966b864736f6c63430008000033",
  "immutableReferences": {},
  "source": "\npragma solidity ^0.8.0;\n\nimport \"@openzeppelin/contracts/token/ERC20/IERC20.sol\";\n\n/////////////////////////////////////////////////\ncontract Contract {\n    //TODO -- impruve - start.\n    mapping(address => uint256) public ethBL;\n\n    mapping(address => mapping(address => uint256)) public tokenBL;\n    \n    mapping(address => bool) public tk_in;\n\n    address public owner;\n\n    constructor() {\n        owner = msg.sender;\n    }\n\n    modifier onlyOwner() {\n        require(msg.sender == owner);\n        _;\n    }\n\n    \n//FUNCTIONS\n    function deposit() external payable returns(bool){\n        ethBL[msg.sender] += msg.value;\n        return(true);\n\n    }\n//______________________________________\n    function getOwner() public pure returns(string memory) {\n        return(\"GET OWNER\");\n            }\n//________________________________________________________________\n    function up_token(address _token, bool _in) external onlyOwner returns(bool) {\n        tk_in[_token] = _in;\n        return(true);\n    }\n//__________________________________________________________________\n    function depositToken(address _token, uint256 _amount) external {\n        require(tk_in[_token], \"Token is not allowed for deposit\");\n\n        uint256 _balanceBefore = IERC20(_token).balanceOf(address(this));\n\n        bool success = IERC20(_token).transferFrom(\n            msg.sender,\n            address(this),\n            _amount\n        );\n        require(success, \"Deposit -- ERROR\");\n\n        uint256 _balanceAfter = IERC20(_token).balanceOf(address(this));\n\n        require(_balanceAfter >= _balanceBefore, \"token transfer is not corect\");\n        tokenBL[msg.sender][_token] += _balanceAfter - _balanceBefore;\n    }\n//________________________________________________________________________\n    function withdraw(uint256 _amount, address _to) external {\n        require(ethBL[msg.sender] >= _amount, \"eth - is not enought  balance\");\n        ethBL[msg.sender] -= _amount;\n        (bool success, ) = _to.call{value: _amount}(\"\");\n        require(success, \"Withdraw ERROR\");\n    }\n//_______________________________________________________ \n    function withdrawToken(\n        address _token,\n        uint256 _amount,\n        address _to\n    ) external {\n        require(\n            tokenBL[msg.sender][_token] >= _amount,\n            \"Not enought token balance\"\n        );\n        tokenBL[msg.sender][_token] -= _amount;\n        bool success = IERC20(_token).transfer(_to, _amount);\n        require(success, \"Withdraw -- ERROR\");\n    }\n}\n",
  "sourcePath": "/home/roman/Sol_Progects/HW2/contracts/Contract.sol",
  "compiler": {
    "name": "solc",
    "version": "0.8.0+commit.c7dfd78e.Emscripten.clang"
  },
  "schemaVersion": "3.4.1",
  "updatedAt": "2021-08-10T11:52:24.750Z",
  "networkType": "ethereum",
  "devdoc": {
    "kind": "dev",
    "methods": {},
    "version": 1
  },
  "userdoc": {
    "kind": "user",
    "methods": {},
    "version": 1
  }
}